{
  "_format": "hh-sol-artifact-1",
  "contractName": "MembershipSBT",
  "sourceName": "contracts/MembershipSBT.sol",
  "abi": [
    {
      "inputs": [
        {
          "internalType": "string",
          "name": "name",
          "type": "string"
        },
        {
          "internalType": "string",
          "name": "symbol",
          "type": "string"
        },
        {
          "internalType": "string",
          "name": "baseURI",
          "type": "string"
        },
        {
          "internalType": "uint256",
          "name": "_maxSupply",
          "type": "uint256"
        },
        {
          "internalType": "enum IERC5484.BurnAuth",
          "name": "defaultBurnAuth",
          "type": "uint8"
        },
        {
          "internalType": "address",
          "name": "initialOwner",
          "type": "address"
        }
      ],
      "stateMutability": "nonpayable",
      "type": "constructor"
    },
    {
      "inputs": [
        {
          "internalType": "address",
          "name": "sender",
          "type": "address"
        },
        {
          "internalType": "uint256",
          "name": "tokenId",
          "type": "uint256"
        },
        {
          "internalType": "address",
          "name": "owner",
          "type": "address"
        }
      ],
      "name": "ERC721IncorrectOwner",
      "type": "error"
    },
    {
      "inputs": [
        {
          "internalType": "address",
          "name": "operator",
          "type": "address"
        },
        {
          "internalType": "uint256",
          "name": "tokenId",
          "type": "uint256"
        }
      ],
      "name": "ERC721InsufficientApproval",
      "type": "error"
    },
    {
      "inputs": [
        {
          "internalType": "address",
          "name": "approver",
          "type": "address"
        }
      ],
      "name": "ERC721InvalidApprover",
      "type": "error"
    },
    {
      "inputs": [
        {
          "internalType": "address",
          "name": "operator",
          "type": "address"
        }
      ],
      "name": "ERC721InvalidOperator",
      "type": "error"
    },
    {
      "inputs": [
        {
          "internalType": "address",
          "name": "owner",
          "type": "address"
        }
      ],
      "name": "ERC721InvalidOwner",
      "type": "error"
    },
    {
      "inputs": [
        {
          "internalType": "address",
          "name": "receiver",
          "type": "address"
        }
      ],
      "name": "ERC721InvalidReceiver",
      "type": "error"
    },
    {
      "inputs": [
        {
          "internalType": "address",
          "name": "sender",
          "type": "address"
        }
      ],
      "name": "ERC721InvalidSender",
      "type": "error"
    },
    {
      "inputs": [
        {
          "internalType": "uint256",
          "name": "tokenId",
          "type": "uint256"
        }
      ],
      "name": "ERC721NonexistentToken",
      "type": "error"
    },
    {
      "inputs": [
        {
          "internalType": "address",
          "name": "owner",
          "type": "address"
        }
      ],
      "name": "OwnableInvalidOwner",
      "type": "error"
    },
    {
      "inputs": [
        {
          "internalType": "address",
          "name": "account",
          "type": "address"
        }
      ],
      "name": "OwnableUnauthorizedAccount",
      "type": "error"
    },
    {
      "anonymous": false,
      "inputs": [
        {
          "indexed": true,
          "internalType": "address",
          "name": "owner",
          "type": "address"
        },
        {
          "indexed": true,
          "internalType": "address",
          "name": "approved",
          "type": "address"
        },
        {
          "indexed": true,
          "internalType": "uint256",
          "name": "tokenId",
          "type": "uint256"
        }
      ],
      "name": "Approval",
      "type": "event"
    },
    {
      "anonymous": false,
      "inputs": [
        {
          "indexed": true,
          "internalType": "address",
          "name": "owner",
          "type": "address"
        },
        {
          "indexed": true,
          "internalType": "address",
          "name": "operator",
          "type": "address"
        },
        {
          "indexed": false,
          "internalType": "bool",
          "name": "approved",
          "type": "bool"
        }
      ],
      "name": "ApprovalForAll",
      "type": "event"
    },
    {
      "anonymous": false,
      "inputs": [
        {
          "indexed": true,
          "internalType": "address",
          "name": "from",
          "type": "address"
        },
        {
          "indexed": true,
          "internalType": "address",
          "name": "to",
          "type": "address"
        },
        {
          "indexed": true,
          "internalType": "uint256",
          "name": "tokenId",
          "type": "uint256"
        },
        {
          "indexed": false,
          "internalType": "enum IERC5484.BurnAuth",
          "name": "burnAuth",
          "type": "uint8"
        }
      ],
      "name": "Issued",
      "type": "event"
    },
    {
      "anonymous": false,
      "inputs": [
        {
          "indexed": false,
          "internalType": "uint256",
          "name": "tokenId",
          "type": "uint256"
        }
      ],
      "name": "Locked",
      "type": "event"
    },
    {
      "anonymous": false,
      "inputs": [
        {
          "indexed": true,
          "internalType": "address",
          "name": "to",
          "type": "address"
        },
        {
          "indexed": true,
          "internalType": "uint256",
          "name": "tokenId",
          "type": "uint256"
        },
        {
          "indexed": true,
          "internalType": "address",
          "name": "creator",
          "type": "address"
        },
        {
          "indexed": false,
          "internalType": "address",
          "name": "createdToken",
          "type": "address"
        }
      ],
      "name": "Minted",
      "type": "event"
    },
    {
      "anonymous": false,
      "inputs": [
        {
          "indexed": true,
          "internalType": "address",
          "name": "previousOwner",
          "type": "address"
        },
        {
          "indexed": true,
          "internalType": "address",
          "name": "newOwner",
          "type": "address"
        }
      ],
      "name": "OwnershipTransferred",
      "type": "event"
    },
    {
      "anonymous": false,
      "inputs": [
        {
          "indexed": true,
          "internalType": "address",
          "name": "from",
          "type": "address"
        },
        {
          "indexed": true,
          "internalType": "address",
          "name": "to",
          "type": "address"
        },
        {
          "indexed": true,
          "internalType": "uint256",
          "name": "tokenId",
          "type": "uint256"
        }
      ],
      "name": "Transfer",
      "type": "event"
    },
    {
      "anonymous": false,
      "inputs": [
        {
          "indexed": false,
          "internalType": "uint256",
          "name": "tokenId",
          "type": "uint256"
        }
      ],
      "name": "Unlocked",
      "type": "event"
    },
    {
      "inputs": [
        {
          "internalType": "address",
          "name": "to",
          "type": "address"
        },
        {
          "internalType": "uint256",
          "name": "tokenId",
          "type": "uint256"
        }
      ],
      "name": "approve",
      "outputs": [],
      "stateMutability": "nonpayable",
      "type": "function"
    },
    {
      "inputs": [
        {
          "internalType": "address",
          "name": "owner",
          "type": "address"
        }
      ],
      "name": "balanceOf",
      "outputs": [
        {
          "internalType": "uint256",
          "name": "",
          "type": "uint256"
        }
      ],
      "stateMutability": "view",
      "type": "function"
    },
    {
      "inputs": [
        {
          "internalType": "uint256",
          "name": "tokenId",
          "type": "uint256"
        }
      ],
      "name": "burn",
      "outputs": [],
      "stateMutability": "nonpayable",
      "type": "function"
    },
    {
      "inputs": [
        {
          "internalType": "uint256",
          "name": "tokenId",
          "type": "uint256"
        }
      ],
      "name": "burnAuth",
      "outputs": [
        {
          "internalType": "enum IERC5484.BurnAuth",
          "name": "",
          "type": "uint8"
        }
      ],
      "stateMutability": "view",
      "type": "function"
    },
    {
      "inputs": [
        {
          "internalType": "uint256",
          "name": "tokenId",
          "type": "uint256"
        }
      ],
      "name": "getApproved",
      "outputs": [
        {
          "internalType": "address",
          "name": "",
          "type": "address"
        }
      ],
      "stateMutability": "view",
      "type": "function"
    },
    {
      "inputs": [
        {
          "internalType": "address",
          "name": "owner",
          "type": "address"
        },
        {
          "internalType": "address",
          "name": "operator",
          "type": "address"
        }
      ],
      "name": "isApprovedForAll",
      "outputs": [
        {
          "internalType": "bool",
          "name": "",
          "type": "bool"
        }
      ],
      "stateMutability": "view",
      "type": "function"
    },
    {
      "inputs": [
        {
          "internalType": "uint256",
          "name": "tokenId",
          "type": "uint256"
        }
      ],
      "name": "lock",
      "outputs": [],
      "stateMutability": "nonpayable",
      "type": "function"
    },
    {
      "inputs": [
        {
          "internalType": "uint256",
          "name": "tokenId",
          "type": "uint256"
        }
      ],
      "name": "locked",
      "outputs": [
        {
          "internalType": "bool",
          "name": "",
          "type": "bool"
        }
      ],
      "stateMutability": "view",
      "type": "function"
    },
    {
      "inputs": [],
      "name": "maxSupply",
      "outputs": [
        {
          "internalType": "uint256",
          "name": "",
          "type": "uint256"
        }
      ],
      "stateMutability": "view",
      "type": "function"
    },
    {
      "inputs": [],
      "name": "name",
      "outputs": [
        {
          "internalType": "string",
          "name": "",
          "type": "string"
        }
      ],
      "stateMutability": "view",
      "type": "function"
    },
    {
      "inputs": [],
      "name": "owner",
      "outputs": [
        {
          "internalType": "address",
          "name": "",
          "type": "address"
        }
      ],
      "stateMutability": "view",
      "type": "function"
    },
    {
      "inputs": [
        {
          "internalType": "uint256",
          "name": "tokenId",
          "type": "uint256"
        }
      ],
      "name": "ownerOf",
      "outputs": [
        {
          "internalType": "address",
          "name": "",
          "type": "address"
        }
      ],
      "stateMutability": "view",
      "type": "function"
    },
    {
      "inputs": [],
      "name": "renounceOwnership",
      "outputs": [],
      "stateMutability": "nonpayable",
      "type": "function"
    },
    {
      "inputs": [
        {
          "internalType": "address",
          "name": "to",
          "type": "address"
        }
      ],
      "name": "safeMint",
      "outputs": [],
      "stateMutability": "nonpayable",
      "type": "function"
    },
    {
      "inputs": [
        {
          "internalType": "address[]",
          "name": "to",
          "type": "address[]"
        }
      ],
      "name": "safeMintBatch",
      "outputs": [],
      "stateMutability": "nonpayable",
      "type": "function"
    },
    {
      "inputs": [
        {
          "internalType": "address",
          "name": "from",
          "type": "address"
        },
        {
          "internalType": "address",
          "name": "to",
          "type": "address"
        },
        {
          "internalType": "uint256",
          "name": "tokenId",
          "type": "uint256"
        }
      ],
      "name": "safeTransferFrom",
      "outputs": [],
      "stateMutability": "nonpayable",
      "type": "function"
    },
    {
      "inputs": [
        {
          "internalType": "address",
          "name": "from",
          "type": "address"
        },
        {
          "internalType": "address",
          "name": "to",
          "type": "address"
        },
        {
          "internalType": "uint256",
          "name": "tokenId",
          "type": "uint256"
        },
        {
          "internalType": "bytes",
          "name": "data",
          "type": "bytes"
        }
      ],
      "name": "safeTransferFrom",
      "outputs": [],
      "stateMutability": "nonpayable",
      "type": "function"
    },
    {
      "inputs": [
        {
          "internalType": "address",
          "name": "operator",
          "type": "address"
        },
        {
          "internalType": "bool",
          "name": "approved",
          "type": "bool"
        }
      ],
      "name": "setApprovalForAll",
      "outputs": [],
      "stateMutability": "nonpayable",
      "type": "function"
    },
    {
      "inputs": [
        {
          "internalType": "bytes4",
          "name": "interfaceId",
          "type": "bytes4"
        }
      ],
      "name": "supportsInterface",
      "outputs": [
        {
          "internalType": "bool",
          "name": "",
          "type": "bool"
        }
      ],
      "stateMutability": "view",
      "type": "function"
    },
    {
      "inputs": [],
      "name": "symbol",
      "outputs": [
        {
          "internalType": "string",
          "name": "",
          "type": "string"
        }
      ],
      "stateMutability": "view",
      "type": "function"
    },
    {
      "inputs": [
        {
          "internalType": "uint256",
          "name": "tokenId",
          "type": "uint256"
        }
      ],
      "name": "tokenURI",
      "outputs": [
        {
          "internalType": "string",
          "name": "",
          "type": "string"
        }
      ],
      "stateMutability": "view",
      "type": "function"
    },
    {
      "inputs": [
        {
          "internalType": "address",
          "name": "from",
          "type": "address"
        },
        {
          "internalType": "address",
          "name": "to",
          "type": "address"
        },
        {
          "internalType": "uint256",
          "name": "tokenId",
          "type": "uint256"
        }
      ],
      "name": "transferFrom",
      "outputs": [],
      "stateMutability": "nonpayable",
      "type": "function"
    },
    {
      "inputs": [
        {
          "internalType": "address",
          "name": "newOwner",
          "type": "address"
        }
      ],
      "name": "transferOwnership",
      "outputs": [],
      "stateMutability": "nonpayable",
      "type": "function"
    },
    {
      "inputs": [
        {
          "internalType": "uint256",
          "name": "tokenId",
          "type": "uint256"
        }
      ],
      "name": "unlock",
      "outputs": [],
      "stateMutability": "nonpayable",
      "type": "function"
    }
  ],
  "bytecode": "0x60806040523480156200001157600080fd5b50604051620038823803806200388283398181016040528101906200003791906200045a565b80868681600090816200004b919062000794565b5080600190816200005d919062000794565b505050600073ffffffffffffffffffffffffffffffffffffffff168173ffffffffffffffffffffffffffffffffffffffff1603620000d55760006040517f1e4fbdf7000000000000000000000000000000000000000000000000000000008152600401620000cc91906200088c565b60405180910390fd5b620000e6816200013960201b60201c565b508360079081620000f8919062000794565b508260088190555081600b60006101000a81548160ff02191690836003811115620001285762000127620008a9565b5b0217905550505050505050620008d8565b6000600660009054906101000a900473ffffffffffffffffffffffffffffffffffffffff16905081600660006101000a81548173ffffffffffffffffffffffffffffffffffffffff021916908373ffffffffffffffffffffffffffffffffffffffff1602179055508173ffffffffffffffffffffffffffffffffffffffff168173ffffffffffffffffffffffffffffffffffffffff167f8be0079c531659141344cd1fd0a4f28419497f9722a3daafe3b4186f6b6457e060405160405180910390a35050565b6000604051905090565b600080fd5b600080fd5b600080fd5b600080fd5b6000601f19601f8301169050919050565b7f4e487b7100000000000000000000000000000000000000000000000000000000600052604160045260246000fd5b62000268826200021d565b810181811067ffffffffffffffff821117156200028a57620002896200022e565b5b80604052505050565b60006200029f620001ff565b9050620002ad82826200025d565b919050565b600067ffffffffffffffff821115620002d057620002cf6200022e565b5b620002db826200021d565b9050602081019050919050565b60005b8381101562000308578082015181840152602081019050620002eb565b60008484015250505050565b60006200032b6200032584620002b2565b62000293565b9050828152602081018484840111156200034a576200034962000218565b5b62000357848285620002e8565b509392505050565b600082601f83011262000377576200037662000213565b5b81516200038984826020860162000314565b91505092915050565b6000819050919050565b620003a78162000392565b8114620003b357600080fd5b50565b600081519050620003c7816200039c565b92915050565b60048110620003db57600080fd5b50565b600081519050620003ef81620003cd565b92915050565b600073ffffffffffffffffffffffffffffffffffffffff82169050919050565b60006200042282620003f5565b9050919050565b620004348162000415565b81146200044057600080fd5b50565b600081519050620004548162000429565b92915050565b60008060008060008060c087890312156200047a576200047962000209565b5b600087015167ffffffffffffffff8111156200049b576200049a6200020e565b5b620004a989828a016200035f565b965050602087015167ffffffffffffffff811115620004cd57620004cc6200020e565b5b620004db89828a016200035f565b955050604087015167ffffffffffffffff811115620004ff57620004fe6200020e565b5b6200050d89828a016200035f565b94505060606200052089828a01620003b6565b93505060806200053389828a01620003de565b92505060a06200054689828a0162000443565b9150509295509295509295565b600081519050919050565b7f4e487b7100000000000000000000000000000000000000000000000000000000600052602260045260246000fd5b60006002820490506001821680620005a657607f821691505b602082108103620005bc57620005bb6200055e565b5b50919050565b60008190508160005260206000209050919050565b60006020601f8301049050919050565b600082821b905092915050565b600060088302620006267fffffffffffffffffffffffffffffffffffffffffffffffffffffffffffffffff82620005e7565b620006328683620005e7565b95508019841693508086168417925050509392505050565b6000819050919050565b6000620006756200066f620006698462000392565b6200064a565b62000392565b9050919050565b6000819050919050565b620006918362000654565b620006a9620006a0826200067c565b848454620005f4565b825550505050565b600090565b620006c0620006b1565b620006cd81848462000686565b505050565b5b81811015620006f557620006e9600082620006b6565b600181019050620006d3565b5050565b601f82111562000744576200070e81620005c2565b6200071984620005d7565b8101602085101562000729578190505b620007416200073885620005d7565b830182620006d2565b50505b505050565b600082821c905092915050565b6000620007696000198460080262000749565b1980831691505092915050565b600062000784838362000756565b9150826002028217905092915050565b6200079f8262000553565b67ffffffffffffffff811115620007bb57620007ba6200022e565b5b620007c782546200058d565b620007d4828285620006f9565b600060209050601f8311600181146200080c5760008415620007f7578287015190505b62000803858262000776565b86555062000873565b601f1984166200081c86620005c2565b60005b8281101562000846578489015182556001820191506020850194506020810190506200081f565b8683101562000866578489015162000862601f89168262000756565b8355505b6001600288020188555050505b505050505050565b620008868162000415565b82525050565b6000602082019050620008a360008301846200087b565b92915050565b7f4e487b7100000000000000000000000000000000000000000000000000000000600052602160045260246000fd5b612f9a80620008e86000396000f3fe608060405234801561001057600080fd5b50600436106101585760003560e01c806370a08231116100c3578063b88d4fde1161007c578063b88d4fde146103c1578063c87b56dd146103dd578063d5abeb011461040d578063dd4670641461042b578063e985e9c514610447578063f2fde38b1461047757610158565b806370a08231146102ff578063715018a61461032f5780638da5cb5b1461033957806395d89b4114610357578063a22cb46514610375578063b45a3c0e1461039157610158565b80632655227811610115578063265522781461024357806340d097c31461025f57806342842e0e1461027b57806342966c68146102975780636198e339146102b35780636352211e146102cf57610158565b806301ffc9a71461015d5780630489b56f1461018d57806306fdde03146101bd578063081812fc146101db578063095ea7b31461020b57806323b872dd14610227575b600080fd5b610177600480360381019061017291906122a7565b610493565b60405161018491906122ef565b60405180910390f35b6101a760048036038101906101a29190612340565b610575565b6040516101b491906123e4565b60405180910390f35b6101c561059f565b6040516101d2919061248f565b60405180910390f35b6101f560048036038101906101f09190612340565b610631565b60405161020291906124f2565b60405180910390f35b61022560048036038101906102209190612539565b61064d565b005b610241600480360381019061023c9190612579565b610663565b005b61025d60048036038101906102589190612714565b610765565b005b6102796004803603810190610274919061275d565b6107b3565b005b61029560048036038101906102909190612579565b6109c1565b005b6102b160048036038101906102ac9190612340565b6109e1565b005b6102cd60048036038101906102c89190612340565b610c9e565b005b6102e960048036038101906102e49190612340565b610d0c565b6040516102f691906124f2565b60405180910390f35b6103196004803603810190610314919061275d565b610d1e565b6040516103269190612799565b60405180910390f35b610337610dd8565b005b610341610dec565b60405161034e91906124f2565b60405180910390f35b61035f610e16565b60405161036c919061248f565b60405180910390f35b61038f600480360381019061038a91906127e0565b610ea8565b005b6103ab60048036038101906103a69190612340565b610ebe565b6040516103b891906122ef565b60405180910390f35b6103db60048036038101906103d691906128d5565b610ee8565b005b6103f760048036038101906103f29190612340565b610f05565b604051610404919061248f565b60405180910390f35b610415610f6e565b6040516104229190612799565b60405180910390f35b61044560048036038101906104409190612340565b610f74565b005b610461600480360381019061045c9190612958565b610fe2565b60405161046e91906122ef565b60405180910390f35b610491600480360381019061048c919061275d565b611076565b005b60007fb45a3c0e000000000000000000000000000000000000000000000000000000007bffffffffffffffffffffffffffffffffffffffffffffffffffffffff1916827bffffffffffffffffffffffffffffffffffffffffffffffffffffffff1916148061055e57507f0489b56f000000000000000000000000000000000000000000000000000000007bffffffffffffffffffffffffffffffffffffffffffffffffffffffff1916827bffffffffffffffffffffffffffffffffffffffffffffffffffffffff1916145b8061056e575061056d826110fc565b5b9050919050565b6000600c600083815260200190815260200160002060009054906101000a900460ff169050919050565b6060600080546105ae906129c7565b80601f01602080910402602001604051908101604052809291908181526020018280546105da906129c7565b80156106275780601f106105fc57610100808354040283529160200191610627565b820191906000526020600020905b81548152906001019060200180831161060a57829003601f168201915b5050505050905090565b600061063c826111de565b5061064682611266565b9050919050565b61065f828261065a6112a3565b6112ab565b5050565b600073ffffffffffffffffffffffffffffffffffffffff168273ffffffffffffffffffffffffffffffffffffffff16036106d55760006040517f64a0ae920000000000000000000000000000000000000000000000000000000081526004016106cc91906124f2565b60405180910390fd5b60006106e983836106e46112a3565b6112bd565b90508373ffffffffffffffffffffffffffffffffffffffff168173ffffffffffffffffffffffffffffffffffffffff161461075f578382826040517f64283d7b000000000000000000000000000000000000000000000000000000008152600401610756939291906129f8565b60405180910390fd5b50505050565b61076d611351565b60005b81518110156107af5761079c82828151811061078f5761078e612a2f565b5b60200260200101516107b3565b80806107a790612a8d565b915050610770565b5050565b6107bb611351565b60006107c682610d1e565b14610806576040517f08c379a00000000000000000000000000000000000000000000000000000000081526004016107fd90612b21565b60405180910390fd5b6000600854148061081a5750600854600954105b610859576040517f08c379a000000000000000000000000000000000000000000000000000000000815260040161085090612b8d565b60405180910390fd5b60006009600081548092919061086e90612a8d565b919050559050600b60009054906101000a900460ff16600c600083815260200190815260200160002060006101000a81548160ff021916908360038111156108b9576108b861236d565b5b02179055506108c882826113d8565b6108d181610f74565b808273ffffffffffffffffffffffffffffffffffffffff163373ffffffffffffffffffffffffffffffffffffffff167f135ffb3383e06280e062ac5095bbf8faa98517161e596a2536bd98a9a8b64a88600c600086815260200190815260200160002060009054906101000a900460ff1660405161094f91906123e4565b60405180910390a43373ffffffffffffffffffffffffffffffffffffffff16818373ffffffffffffffffffffffffffffffffffffffff167fe62280e29f49a8547a28ef2ef085a25b1549054ebcddd27b89ba4f803615c613306040516109b591906124f2565b60405180910390a45050565b6109dc83838360405180602001604052806000815250610ee8565b505050565b6000600c600083815260200190815260200160002060009054906101000a900460ff16905060006003811115610a1a57610a1961236d565b5b816003811115610a2d57610a2c61236d565b5b03610aa8573373ffffffffffffffffffffffffffffffffffffffff16610a51610dec565b73ffffffffffffffffffffffffffffffffffffffff1614610aa7576040517f08c379a0000000000000000000000000000000000000000000000000000000008152600401610a9e90612bf9565b60405180910390fd5b5b60016003811115610abc57610abb61236d565b5b816003811115610acf57610ace61236d565b5b03610b4b573373ffffffffffffffffffffffffffffffffffffffff16610af483610d0c565b73ffffffffffffffffffffffffffffffffffffffff1614610b4a576040517f08c379a0000000000000000000000000000000000000000000000000000000008152600401610b4190612c65565b60405180910390fd5b5b60026003811115610b5f57610b5e61236d565b5b816003811115610b7257610b7161236d565b5b03610c2b573373ffffffffffffffffffffffffffffffffffffffff16610b96610dec565b73ffffffffffffffffffffffffffffffffffffffff161480610beb57503373ffffffffffffffffffffffffffffffffffffffff16610bd383610d0c565b73ffffffffffffffffffffffffffffffffffffffff16145b610c2a576040517f08c379a0000000000000000000000000000000000000000000000000000000008152600401610c2190612cd1565b60405180910390fd5b5b600380811115610c3e57610c3d61236d565b5b816003811115610c5157610c5061236d565b5b03610c91576040517f08c379a0000000000000000000000000000000000000000000000000000000008152600401610c8890612d3d565b60405180910390fd5b610c9a826113f6565b5050565b610ca6611351565b6000600a600083815260200190815260200160002060006101000a81548160ff0219169083151502179055507ff27b6ce5b2f5e68ddb2fd95a8a909d4ecf1daaac270935fff052feacb24f184281604051610d019190612799565b60405180910390a150565b6000610d17826111de565b9050919050565b60008073ffffffffffffffffffffffffffffffffffffffff168273ffffffffffffffffffffffffffffffffffffffff1603610d915760006040517f89c62b64000000000000000000000000000000000000000000000000000000008152600401610d8891906124f2565b60405180910390fd5b600360008373ffffffffffffffffffffffffffffffffffffffff1673ffffffffffffffffffffffffffffffffffffffff168152602001908152602001600020549050919050565b610de0611351565b610dea600061147c565b565b6000600660009054906101000a900473ffffffffffffffffffffffffffffffffffffffff16905090565b606060018054610e25906129c7565b80601f0160208091040260200160405190810160405280929190818152602001828054610e51906129c7565b8015610e9e5780601f10610e7357610100808354040283529160200191610e9e565b820191906000526020600020905b815481529060010190602001808311610e8157829003601f168201915b5050505050905090565b610eba610eb36112a3565b8383611542565b5050565b6000600a600083815260200190815260200160002060009054906101000a900460ff169050919050565b610ef3848484610663565b610eff848484846116b1565b50505050565b6060610f10826111de565b506000610f1b611868565b90506000815111610f3b5760405180602001604052806000815250610f66565b80610f45846118fa565b604051602001610f56929190612d99565b6040516020818303038152906040525b915050919050565b60085481565b610f7c611351565b6001600a600083815260200190815260200160002060006101000a81548160ff0219169083151502179055507f032bc66be43dbccb7487781d168eb7bda224628a3b2c3388bdf69b532a3a161181604051610fd79190612799565b60405180910390a150565b6000600560008473ffffffffffffffffffffffffffffffffffffffff1673ffffffffffffffffffffffffffffffffffffffff16815260200190815260200160002060008373ffffffffffffffffffffffffffffffffffffffff1673ffffffffffffffffffffffffffffffffffffffff16815260200190815260200160002060009054906101000a900460ff16905092915050565b61107e611351565b600073ffffffffffffffffffffffffffffffffffffffff168173ffffffffffffffffffffffffffffffffffffffff16036110f05760006040517f1e4fbdf70000000000000000000000000000000000000000000000000000000081526004016110e791906124f2565b60405180910390fd5b6110f98161147c565b50565b60007f80ac58cd000000000000000000000000000000000000000000000000000000007bffffffffffffffffffffffffffffffffffffffffffffffffffffffff1916827bffffffffffffffffffffffffffffffffffffffffffffffffffffffff191614806111c757507f5b5e139f000000000000000000000000000000000000000000000000000000007bffffffffffffffffffffffffffffffffffffffffffffffffffffffff1916827bffffffffffffffffffffffffffffffffffffffffffffffffffffffff1916145b806111d757506111d6826119c8565b5b9050919050565b6000806111ea83611a32565b9050600073ffffffffffffffffffffffffffffffffffffffff168173ffffffffffffffffffffffffffffffffffffffff160361125d57826040517f7e2732890000000000000000000000000000000000000000000000000000000081526004016112549190612799565b60405180910390fd5b80915050919050565b60006004600083815260200190815260200160002060009054906101000a900473ffffffffffffffffffffffffffffffffffffffff169050919050565b600033905090565b6112b88383836001611a6f565b505050565b60006112c883610ebe565b1561133d57600073ffffffffffffffffffffffffffffffffffffffff168473ffffffffffffffffffffffffffffffffffffffff161461133c576040517f08c379a000000000000000000000000000000000000000000000000000000000815260040161133390612e09565b60405180910390fd5b5b611348848484611c34565b90509392505050565b6113596112a3565b73ffffffffffffffffffffffffffffffffffffffff16611377610dec565b73ffffffffffffffffffffffffffffffffffffffff16146113d65761139a6112a3565b6040517f118cdaa70000000000000000000000000000000000000000000000000000000081526004016113cd91906124f2565b60405180910390fd5b565b6113f2828260405180602001604052806000815250611e4e565b5050565b600061140560008360006112bd565b9050600073ffffffffffffffffffffffffffffffffffffffff168173ffffffffffffffffffffffffffffffffffffffff160361147857816040517f7e27328900000000000000000000000000000000000000000000000000000000815260040161146f9190612799565b60405180910390fd5b5050565b6000600660009054906101000a900473ffffffffffffffffffffffffffffffffffffffff16905081600660006101000a81548173ffffffffffffffffffffffffffffffffffffffff021916908373ffffffffffffffffffffffffffffffffffffffff1602179055508173ffffffffffffffffffffffffffffffffffffffff168173ffffffffffffffffffffffffffffffffffffffff167f8be0079c531659141344cd1fd0a4f28419497f9722a3daafe3b4186f6b6457e060405160405180910390a35050565b600073ffffffffffffffffffffffffffffffffffffffff168273ffffffffffffffffffffffffffffffffffffffff16036115b357816040517f5b08ba180000000000000000000000000000000000000000000000000000000081526004016115aa91906124f2565b60405180910390fd5b80600560008573ffffffffffffffffffffffffffffffffffffffff1673ffffffffffffffffffffffffffffffffffffffff16815260200190815260200160002060008473ffffffffffffffffffffffffffffffffffffffff1673ffffffffffffffffffffffffffffffffffffffff16815260200190815260200160002060006101000a81548160ff0219169083151502179055508173ffffffffffffffffffffffffffffffffffffffff168373ffffffffffffffffffffffffffffffffffffffff167f17307eab39ab6107e8899845ad3d59bd9653f200f220920489ca2b5937696c31836040516116a491906122ef565b60405180910390a3505050565b60008373ffffffffffffffffffffffffffffffffffffffff163b1115611862578273ffffffffffffffffffffffffffffffffffffffff1663150b7a026116f56112a3565b8685856040518563ffffffff1660e01b81526004016117179493929190612e7e565b6020604051808303816000875af192505050801561175357506040513d601f19601f820116820180604052508101906117509190612edf565b60015b6117d7573d8060008114611783576040519150601f19603f3d011682016040523d82523d6000602084013e611788565b606091505b5060008151036117cf57836040517f64a0ae920000000000000000000000000000000000000000000000000000000081526004016117c691906124f2565b60405180910390fd5b805181602001fd5b63150b7a0260e01b7bffffffffffffffffffffffffffffffffffffffffffffffffffffffff1916817bffffffffffffffffffffffffffffffffffffffffffffffffffffffff19161461186057836040517f64a0ae9200000000000000000000000000000000000000000000000000000000815260040161185791906124f2565b60405180910390fd5b505b50505050565b606060078054611877906129c7565b80601f01602080910402602001604051908101604052809291908181526020018280546118a3906129c7565b80156118f05780601f106118c5576101008083540402835291602001916118f0565b820191906000526020600020905b8154815290600101906020018083116118d357829003601f168201915b5050505050905090565b60606000600161190984611e6a565b01905060008167ffffffffffffffff811115611928576119276125d1565b5b6040519080825280601f01601f19166020018201604052801561195a5781602001600182028036833780820191505090505b509050600082602001820190505b6001156119bd578080600190039150507f3031323334353637383961626364656600000000000000000000000000000000600a86061a8153600a85816119b1576119b0612f0c565b5b04945060008503611968575b819350505050919050565b60007f01ffc9a7000000000000000000000000000000000000000000000000000000007bffffffffffffffffffffffffffffffffffffffffffffffffffffffff1916827bffffffffffffffffffffffffffffffffffffffffffffffffffffffff1916149050919050565b60006002600083815260200190815260200160002060009054906101000a900473ffffffffffffffffffffffffffffffffffffffff169050919050565b8080611aa85750600073ffffffffffffffffffffffffffffffffffffffff168273ffffffffffffffffffffffffffffffffffffffff1614155b15611bdc576000611ab8846111de565b9050600073ffffffffffffffffffffffffffffffffffffffff168373ffffffffffffffffffffffffffffffffffffffff1614158015611b2357508273ffffffffffffffffffffffffffffffffffffffff168173ffffffffffffffffffffffffffffffffffffffff1614155b8015611b365750611b348184610fe2565b155b15611b7857826040517fa9fbf51f000000000000000000000000000000000000000000000000000000008152600401611b6f91906124f2565b60405180910390fd5b8115611bda57838573ffffffffffffffffffffffffffffffffffffffff168273ffffffffffffffffffffffffffffffffffffffff167f8c5be1e5ebec7d5bd14f71427d1e84f3dd0314c0f7b2291e5b200ac8c7c3b92560405160405180910390a45b505b836004600085815260200190815260200160002060006101000a81548173ffffffffffffffffffffffffffffffffffffffff021916908373ffffffffffffffffffffffffffffffffffffffff16021790555050505050565b600080611c4084611a32565b9050600073ffffffffffffffffffffffffffffffffffffffff168373ffffffffffffffffffffffffffffffffffffffff1614611c8257611c81818486611fbd565b5b600073ffffffffffffffffffffffffffffffffffffffff168173ffffffffffffffffffffffffffffffffffffffff1614611d1357611cc4600085600080611a6f565b6001600360008373ffffffffffffffffffffffffffffffffffffffff1673ffffffffffffffffffffffffffffffffffffffff168152602001908152602001600020600082825403925050819055505b600073ffffffffffffffffffffffffffffffffffffffff168573ffffffffffffffffffffffffffffffffffffffff1614611d96576001600360008773ffffffffffffffffffffffffffffffffffffffff1673ffffffffffffffffffffffffffffffffffffffff168152602001908152602001600020600082825401925050819055505b846002600086815260200190815260200160002060006101000a81548173ffffffffffffffffffffffffffffffffffffffff021916908373ffffffffffffffffffffffffffffffffffffffff160217905550838573ffffffffffffffffffffffffffffffffffffffff168273ffffffffffffffffffffffffffffffffffffffff167fddf252ad1be2c89b69c2b068fc378daa952ba7f163c4a11628f55a4df523b3ef60405160405180910390a4809150509392505050565b611e588383612081565b611e6560008484846116b1565b505050565b600080600090507a184f03e93ff9f4daa797ed6e38ed64bf6a1f0100000000000000008310611ec8577a184f03e93ff9f4daa797ed6e38ed64bf6a1f0100000000000000008381611ebe57611ebd612f0c565b5b0492506040810190505b6d04ee2d6d415b85acef81000000008310611f05576d04ee2d6d415b85acef81000000008381611efb57611efa612f0c565b5b0492506020810190505b662386f26fc100008310611f3457662386f26fc100008381611f2a57611f29612f0c565b5b0492506010810190505b6305f5e1008310611f5d576305f5e1008381611f5357611f52612f0c565b5b0492506008810190505b6127108310611f82576127108381611f7857611f77612f0c565b5b0492506004810190505b60648310611fa55760648381611f9b57611f9a612f0c565b5b0492506002810190505b600a8310611fb4576001810190505b80915050919050565b611fc883838361217a565b61207c57600073ffffffffffffffffffffffffffffffffffffffff168373ffffffffffffffffffffffffffffffffffffffff160361203d57806040517f7e2732890000000000000000000000000000000000000000000000000000000081526004016120349190612799565b60405180910390fd5b81816040517f177e802f000000000000000000000000000000000000000000000000000000008152600401612073929190612f3b565b60405180910390fd5b505050565b600073ffffffffffffffffffffffffffffffffffffffff168273ffffffffffffffffffffffffffffffffffffffff16036120f35760006040517f64a0ae920000000000000000000000000000000000000000000000000000000081526004016120ea91906124f2565b60405180910390fd5b6000612101838360006112bd565b9050600073ffffffffffffffffffffffffffffffffffffffff168173ffffffffffffffffffffffffffffffffffffffff16146121755760006040517f73c6ac6e00000000000000000000000000000000000000000000000000000000815260040161216c91906124f2565b60405180910390fd5b505050565b60008073ffffffffffffffffffffffffffffffffffffffff168373ffffffffffffffffffffffffffffffffffffffff161415801561223257508273ffffffffffffffffffffffffffffffffffffffff168473ffffffffffffffffffffffffffffffffffffffff1614806121f357506121f28484610fe2565b5b8061223157508273ffffffffffffffffffffffffffffffffffffffff1661221983611266565b73ffffffffffffffffffffffffffffffffffffffff16145b5b90509392505050565b6000604051905090565b600080fd5b600080fd5b60007fffffffff0000000000000000000000000000000000000000000000000000000082169050919050565b6122848161224f565b811461228f57600080fd5b50565b6000813590506122a18161227b565b92915050565b6000602082840312156122bd576122bc612245565b5b60006122cb84828501612292565b91505092915050565b60008115159050919050565b6122e9816122d4565b82525050565b600060208201905061230460008301846122e0565b92915050565b6000819050919050565b61231d8161230a565b811461232857600080fd5b50565b60008135905061233a81612314565b92915050565b60006020828403121561235657612355612245565b5b60006123648482850161232b565b91505092915050565b7f4e487b7100000000000000000000000000000000000000000000000000000000600052602160045260246000fd5b600481106123ad576123ac61236d565b5b50565b60008190506123be8261239c565b919050565b60006123ce826123b0565b9050919050565b6123de816123c3565b82525050565b60006020820190506123f960008301846123d5565b92915050565b600081519050919050565b600082825260208201905092915050565b60005b8381101561243957808201518184015260208101905061241e565b60008484015250505050565b6000601f19601f8301169050919050565b6000612461826123ff565b61246b818561240a565b935061247b81856020860161241b565b61248481612445565b840191505092915050565b600060208201905081810360008301526124a98184612456565b905092915050565b600073ffffffffffffffffffffffffffffffffffffffff82169050919050565b60006124dc826124b1565b9050919050565b6124ec816124d1565b82525050565b600060208201905061250760008301846124e3565b92915050565b612516816124d1565b811461252157600080fd5b50565b6000813590506125338161250d565b92915050565b600080604083850312156125505761254f612245565b5b600061255e85828601612524565b925050602061256f8582860161232b565b9150509250929050565b60008060006060848603121561259257612591612245565b5b60006125a086828701612524565b93505060206125b186828701612524565b92505060406125c28682870161232b565b9150509250925092565b600080fd5b7f4e487b7100000000000000000000000000000000000000000000000000000000600052604160045260246000fd5b61260982612445565b810181811067ffffffffffffffff82111715612628576126276125d1565b5b80604052505050565b600061263b61223b565b90506126478282612600565b919050565b600067ffffffffffffffff821115612667576126666125d1565b5b602082029050602081019050919050565b600080fd5b600061269061268b8461264c565b612631565b905080838252602082019050602084028301858111156126b3576126b2612678565b5b835b818110156126dc57806126c88882612524565b8452602084019350506020810190506126b5565b5050509392505050565b600082601f8301126126fb576126fa6125cc565b5b813561270b84826020860161267d565b91505092915050565b60006020828403121561272a57612729612245565b5b600082013567ffffffffffffffff8111156127485761274761224a565b5b612754848285016126e6565b91505092915050565b60006020828403121561277357612772612245565b5b600061278184828501612524565b91505092915050565b6127938161230a565b82525050565b60006020820190506127ae600083018461278a565b92915050565b6127bd816122d4565b81146127c857600080fd5b50565b6000813590506127da816127b4565b92915050565b600080604083850312156127f7576127f6612245565b5b600061280585828601612524565b9250506020612816858286016127cb565b9150509250929050565b600080fd5b600067ffffffffffffffff8211156128405761283f6125d1565b5b61284982612445565b9050602081019050919050565b82818337600083830152505050565b600061287861287384612825565b612631565b90508281526020810184848401111561289457612893612820565b5b61289f848285612856565b509392505050565b600082601f8301126128bc576128bb6125cc565b5b81356128cc848260208601612865565b91505092915050565b600080600080608085870312156128ef576128ee612245565b5b60006128fd87828801612524565b945050602061290e87828801612524565b935050604061291f8782880161232b565b925050606085013567ffffffffffffffff8111156129405761293f61224a565b5b61294c878288016128a7565b91505092959194509250565b6000806040838503121561296f5761296e612245565b5b600061297d85828601612524565b925050602061298e85828601612524565b9150509250929050565b7f4e487b7100000000000000000000000000000000000000000000000000000000600052602260045260246000fd5b600060028204905060018216806129df57607f821691505b6020821081036129f2576129f1612998565b5b50919050565b6000606082019050612a0d60008301866124e3565b612a1a602083018561278a565b612a2760408301846124e3565b949350505050565b7f4e487b7100000000000000000000000000000000000000000000000000000000600052603260045260246000fd5b7f4e487b7100000000000000000000000000000000000000000000000000000000600052601160045260246000fd5b6000612a988261230a565b91507fffffffffffffffffffffffffffffffffffffffffffffffffffffffffffffffff8203612aca57612ac9612a5e565b5b600182019050919050565b7f596f752063616e206d696e74206f6e6c79206f6e6520746f6b656e0000000000600082015250565b6000612b0b601b8361240a565b9150612b1682612ad5565b602082019050919050565b60006020820190508181036000830152612b3a81612afe565b9050919050565b7f4d617820737570706c7920726561636865640000000000000000000000000000600082015250565b6000612b7760128361240a565b9150612b8282612b41565b602082019050919050565b60006020820190508181036000830152612ba681612b6a565b9050919050565b7f4f6e6c79206973737565722063616e206275726e000000000000000000000000600082015250565b6000612be360148361240a565b9150612bee82612bad565b602082019050919050565b60006020820190508181036000830152612c1281612bd6565b9050919050565b7f4f6e6c79206f776e65722063616e206275726e00000000000000000000000000600082015250565b6000612c4f60138361240a565b9150612c5a82612c19565b602082019050919050565b60006020820190508181036000830152612c7e81612c42565b9050919050565b7f4f6e6c7920697373756572206f72206f776e65722063616e206275726e000000600082015250565b6000612cbb601d8361240a565b9150612cc682612c85565b602082019050919050565b60006020820190508181036000830152612cea81612cae565b9050919050565b7f4275726e696e67206e6f7420616c6c6f77656400000000000000000000000000600082015250565b6000612d2760138361240a565b9150612d3282612cf1565b602082019050919050565b60006020820190508181036000830152612d5681612d1a565b9050919050565b600081905092915050565b6000612d73826123ff565b612d7d8185612d5d565b9350612d8d81856020860161241b565b80840191505092915050565b6000612da58285612d68565b9150612db18284612d68565b91508190509392505050565b7f546f6b656e206973206c6f636b65640000000000000000000000000000000000600082015250565b6000612df3600f8361240a565b9150612dfe82612dbd565b602082019050919050565b60006020820190508181036000830152612e2281612de6565b9050919050565b600081519050919050565b600082825260208201905092915050565b6000612e5082612e29565b612e5a8185612e34565b9350612e6a81856020860161241b565b612e7381612445565b840191505092915050565b6000608082019050612e9360008301876124e3565b612ea060208301866124e3565b612ead604083018561278a565b8181036060830152612ebf8184612e45565b905095945050505050565b600081519050612ed98161227b565b92915050565b600060208284031215612ef557612ef4612245565b5b6000612f0384828501612eca565b91505092915050565b7f4e487b7100000000000000000000000000000000000000000000000000000000600052601260045260246000fd5b6000604082019050612f5060008301856124e3565b612f5d602083018461278a565b939250505056fea2646970667358221220a477e66dd24cd9dde29365c9c823d45e2bc5776082948d35b8ea2070938d257f64736f6c63430008140033",
  "linkReferences": {},
  "deployedLinkReferences": {}
}