{
  "_format": "hh-sol-artifact-1",
  "contractName": "SBTFactory",
  "sourceName": "contracts/SBTFactory.sol",
  "abi": [
    {
      "inputs": [],
      "stateMutability": "nonpayable",
      "type": "constructor"
    },
    {
      "inputs": [
        {
          "internalType": "address",
          "name": "target",
          "type": "address"
        }
      ],
      "name": "AddressEmptyCode",
      "type": "error"
    },
    {
      "inputs": [
        {
          "internalType": "address",
          "name": "implementation",
          "type": "address"
        }
      ],
      "name": "ERC1967InvalidImplementation",
      "type": "error"
    },
    {
      "inputs": [],
      "name": "ERC1967NonPayable",
      "type": "error"
    },
    {
      "inputs": [],
      "name": "FailedInnerCall",
      "type": "error"
    },
    {
      "inputs": [],
      "name": "InvalidInitialization",
      "type": "error"
    },
    {
      "inputs": [],
      "name": "NotInitializing",
      "type": "error"
    },
    {
      "inputs": [
        {
          "internalType": "address",
          "name": "owner",
          "type": "address"
        }
      ],
      "name": "OwnableInvalidOwner",
      "type": "error"
    },
    {
      "inputs": [
        {
          "internalType": "address",
          "name": "account",
          "type": "address"
        }
      ],
      "name": "OwnableUnauthorizedAccount",
      "type": "error"
    },
    {
      "inputs": [],
      "name": "UUPSUnauthorizedCallContext",
      "type": "error"
    },
    {
      "inputs": [
        {
          "internalType": "bytes32",
          "name": "slot",
          "type": "bytes32"
        }
      ],
      "name": "UUPSUnsupportedProxiableUUID",
      "type": "error"
    },
    {
      "anonymous": false,
      "inputs": [
        {
          "indexed": false,
          "internalType": "uint64",
          "name": "version",
          "type": "uint64"
        }
      ],
      "name": "Initialized",
      "type": "event"
    },
    {
      "anonymous": false,
      "inputs": [
        {
          "indexed": true,
          "internalType": "address",
          "name": "previousOwner",
          "type": "address"
        },
        {
          "indexed": true,
          "internalType": "address",
          "name": "newOwner",
          "type": "address"
        }
      ],
      "name": "OwnershipTransferred",
      "type": "event"
    },
    {
      "anonymous": false,
      "inputs": [
        {
          "indexed": true,
          "internalType": "address",
          "name": "creator",
          "type": "address"
        },
        {
          "indexed": false,
          "internalType": "address",
          "name": "sbtAddress",
          "type": "address"
        },
        {
          "indexed": false,
          "internalType": "string",
          "name": "name",
          "type": "string"
        },
        {
          "indexed": false,
          "internalType": "string",
          "name": "symbol",
          "type": "string"
        },
        {
          "indexed": false,
          "internalType": "string",
          "name": "image",
          "type": "string"
        },
        {
          "indexed": false,
          "internalType": "string",
          "name": "description",
          "type": "string"
        }
      ],
      "name": "SBTCreated",
      "type": "event"
    },
    {
      "anonymous": false,
      "inputs": [
        {
          "indexed": true,
          "internalType": "address",
          "name": "implementation",
          "type": "address"
        }
      ],
      "name": "Upgraded",
      "type": "event"
    },
    {
      "inputs": [],
      "name": "UPGRADE_INTERFACE_VERSION",
      "outputs": [
        {
          "internalType": "string",
          "name": "",
          "type": "string"
        }
      ],
      "stateMutability": "view",
      "type": "function"
    },
    {
      "inputs": [
        {
          "internalType": "string",
          "name": "name",
          "type": "string"
        },
        {
          "internalType": "string",
          "name": "symbol",
          "type": "string"
        },
        {
          "internalType": "string",
          "name": "baseURI",
          "type": "string"
        },
        {
          "internalType": "string",
          "name": "image",
          "type": "string"
        },
        {
          "internalType": "string",
          "name": "description",
          "type": "string"
        }
      ],
      "name": "createMembershipSBT",
      "outputs": [
        {
          "internalType": "address",
          "name": "",
          "type": "address"
        }
      ],
      "stateMutability": "nonpayable",
      "type": "function"
    },
    {
      "inputs": [],
      "name": "initialize",
      "outputs": [],
      "stateMutability": "nonpayable",
      "type": "function"
    },
    {
      "inputs": [],
      "name": "owner",
      "outputs": [
        {
          "internalType": "address",
          "name": "",
          "type": "address"
        }
      ],
      "stateMutability": "view",
      "type": "function"
    },
    {
      "inputs": [],
      "name": "proxiableUUID",
      "outputs": [
        {
          "internalType": "bytes32",
          "name": "",
          "type": "bytes32"
        }
      ],
      "stateMutability": "view",
      "type": "function"
    },
    {
      "inputs": [],
      "name": "renounceOwnership",
      "outputs": [],
      "stateMutability": "nonpayable",
      "type": "function"
    },
    {
      "inputs": [
        {
          "internalType": "address",
          "name": "newOwner",
          "type": "address"
        }
      ],
      "name": "transferOwnership",
      "outputs": [],
      "stateMutability": "nonpayable",
      "type": "function"
    },
    {
      "inputs": [
        {
          "internalType": "address",
          "name": "newImplementation",
          "type": "address"
        },
        {
          "internalType": "bytes",
          "name": "data",
          "type": "bytes"
        }
      ],
      "name": "upgradeToAndCall",
      "outputs": [],
      "stateMutability": "payable",
      "type": "function"
    }
  ],
  "bytecode": "0x60a06040523073ffffffffffffffffffffffffffffffffffffffff1660809073ffffffffffffffffffffffffffffffffffffffff168152503480156200004457600080fd5b50620000556200005b60201b60201c565b620001cf565b60006200006d6200016560201b60201c565b90508060000160089054906101000a900460ff1615620000b9576040517ff92ee8a900000000000000000000000000000000000000000000000000000000815260040160405180910390fd5b67ffffffffffffffff80168160000160009054906101000a900467ffffffffffffffff1667ffffffffffffffff1614620001625767ffffffffffffffff8160000160006101000a81548167ffffffffffffffff021916908367ffffffffffffffff1602179055507fc7f505b2f371ae2175ee4913f4499e1f2633a7b5936321eed1cdaeb6115181d267ffffffffffffffff604051620001599190620001b2565b60405180910390a15b50565b60007ff0c57e16840df040f15088dc2f81fe391c3923bec73e23a9662efc9c229c6a00905090565b600067ffffffffffffffff82169050919050565b620001ac816200018d565b82525050565b6000602082019050620001c96000830184620001a1565b92915050565b6080516143bf620001f9600039600081816105a0015281816105f601526107c101526143bf6000f3fe608060405260043610620000865760003560e01c80638da5cb5b11620000555780638da5cb5b146200010f578063ad3cb1cc146200013f578063c32d2b94146200016f578063f2fde38b14620001b35762000086565b80634f1ef286146200008b57806352d1902d14620000ab578063715018a614620000db5780638129fc1c14620000f5575b600080fd5b620000a96004803603810190620000a391906200105d565b620001e1565b005b348015620000b857600080fd5b50620000c362000206565b604051620000d29190620010de565b60405180910390f35b348015620000e857600080fd5b50620000f36200023b565b005b3480156200010257600080fd5b506200010d62000253565b005b3480156200011c57600080fd5b5062000127620003f7565b6040516200013691906200110c565b60405180910390f35b3480156200014c57600080fd5b506200015762000431565b604051620001669190620011b2565b60405180910390f35b3480156200017c57600080fd5b506200019b60048036038101906200019591906200128a565b6200046a565b604051620001aa91906200110c565b60405180910390f35b348015620001c057600080fd5b50620001df6004803603810190620001d99190620013ad565b62000511565b005b620001eb6200059e565b620001f68262000688565b62000202828262000695565b5050565b600062000212620007bf565b7f360894a13ba1a3210667c828492db98dca3e2076cc3735a920a3ca505d382bbc60001b905090565b6200024562000847565b620002516000620008d7565b565b60006200025f620009b0565b905060008160000160089054906101000a900460ff1615905060008260000160009054906101000a900467ffffffffffffffff1690506000808267ffffffffffffffff16148015620002ae5750825b9050600060018367ffffffffffffffff16148015620002e4575060003073ffffffffffffffffffffffffffffffffffffffff163b145b905081158015620002f3575080155b156200032b576040517ff92ee8a900000000000000000000000000000000000000000000000000000000815260040160405180910390fd5b60018560000160006101000a81548167ffffffffffffffff021916908367ffffffffffffffff16021790555083156200037c5760018560000160086101000a81548160ff0219169083151502179055505b6200038733620009d8565b62000391620009f0565b8315620003f05760008560000160086101000a81548160ff0219169083151502179055507fc7f505b2f371ae2175ee4913f4499e1f2633a7b5936321eed1cdaeb6115181d26001604051620003e7919062001440565b60405180910390a15b5050505050565b60008062000404620009fc565b90508060000160009054906101000a900473ffffffffffffffffffffffffffffffffffffffff1691505090565b6040518060400160405280600581526020017f352e302e3000000000000000000000000000000000000000000000000000000081525081565b6000808686866040516200047e9062000e74565b6200048c939291906200145d565b604051809103906000f080158015620004a9573d6000803e3d6000fd5b5090503373ffffffffffffffffffffffffffffffffffffffff167f93a04c3753090c8f451038896dc2e948e321424faa7cc9b6f9dc8fb5cd1a1bd38289898888604051620004fc959493929190620014af565b60405180910390a28091505095945050505050565b6200051b62000847565b600073ffffffffffffffffffffffffffffffffffffffff168173ffffffffffffffffffffffffffffffffffffffff1603620005905760006040517f1e4fbdf70000000000000000000000000000000000000000000000000000000081526004016200058791906200110c565b60405180910390fd5b6200059b81620008d7565b50565b7f000000000000000000000000000000000000000000000000000000000000000073ffffffffffffffffffffffffffffffffffffffff163073ffffffffffffffffffffffffffffffffffffffff1614806200064e57507f000000000000000000000000000000000000000000000000000000000000000073ffffffffffffffffffffffffffffffffffffffff166200063562000a24565b73ffffffffffffffffffffffffffffffffffffffff1614155b1562000686576040517fe07c8dba00000000000000000000000000000000000000000000000000000000815260040160405180910390fd5b565b6200069262000847565b50565b8173ffffffffffffffffffffffffffffffffffffffff166352d1902d6040518163ffffffff1660e01b8152600401602060405180830381865afa9250505080156200070057506040513d601f19601f82011682018060405250810190620006fd919062001559565b60015b6200074457816040517f4c9c8ce30000000000000000000000000000000000000000000000000000000081526004016200073b91906200110c565b60405180910390fd5b7f360894a13ba1a3210667c828492db98dca3e2076cc3735a920a3ca505d382bbc60001b8114620007ae57806040517faa1d49a4000000000000000000000000000000000000000000000000000000008152600401620007a59190620010de565b60405180910390fd5b620007ba838362000a7d565b505050565b7f000000000000000000000000000000000000000000000000000000000000000073ffffffffffffffffffffffffffffffffffffffff163073ffffffffffffffffffffffffffffffffffffffff161462000845576040517fe07c8dba00000000000000000000000000000000000000000000000000000000815260040160405180910390fd5b565b6200085162000af8565b73ffffffffffffffffffffffffffffffffffffffff1662000871620003f7565b73ffffffffffffffffffffffffffffffffffffffff1614620008d5576200089762000af8565b6040517f118cdaa7000000000000000000000000000000000000000000000000000000008152600401620008cc91906200110c565b60405180910390fd5b565b6000620008e3620009fc565b905060008160000160009054906101000a900473ffffffffffffffffffffffffffffffffffffffff169050828260000160006101000a81548173ffffffffffffffffffffffffffffffffffffffff021916908373ffffffffffffffffffffffffffffffffffffffff1602179055508273ffffffffffffffffffffffffffffffffffffffff168173ffffffffffffffffffffffffffffffffffffffff167f8be0079c531659141344cd1fd0a4f28419497f9722a3daafe3b4186f6b6457e060405160405180910390a3505050565b60007ff0c57e16840df040f15088dc2f81fe391c3923bec73e23a9662efc9c229c6a00905090565b620009e262000b00565b620009ed8162000b43565b50565b620009fa62000b00565b565b60007f9016d09d72d40fdae2fd8ceac6b6234c7706214fd39c1cd1e609a0528c199300905090565b600062000a547f360894a13ba1a3210667c828492db98dca3e2076cc3735a920a3ca505d382bbc60001b62000bd0565b60000160009054906101000a900473ffffffffffffffffffffffffffffffffffffffff16905090565b62000a888262000bda565b8173ffffffffffffffffffffffffffffffffffffffff167fbc7cd75a20ee27fd9adebab32041f755214dbc6bffa90cc0225b39da2e5c2d3b60405160405180910390a260008151111562000ae95762000ae2828262000cac565b5062000af4565b62000af362000d36565b5b5050565b600033905090565b62000b0a62000d74565b62000b41576040517fd7e6bcf800000000000000000000000000000000000000000000000000000000815260040160405180910390fd5b565b62000b4d62000b00565b600073ffffffffffffffffffffffffffffffffffffffff168173ffffffffffffffffffffffffffffffffffffffff160362000bc25760006040517f1e4fbdf700000000000000000000000000000000000000000000000000000000815260040162000bb991906200110c565b60405180910390fd5b62000bcd81620008d7565b50565b6000819050919050565b60008173ffffffffffffffffffffffffffffffffffffffff163b0362000c3957806040517f4c9c8ce300000000000000000000000000000000000000000000000000000000815260040162000c3091906200110c565b60405180910390fd5b8062000c687f360894a13ba1a3210667c828492db98dca3e2076cc3735a920a3ca505d382bbc60001b62000bd0565b60000160006101000a81548173ffffffffffffffffffffffffffffffffffffffff021916908373ffffffffffffffffffffffffffffffffffffffff16021790555050565b60606000808473ffffffffffffffffffffffffffffffffffffffff168460405162000cd89190620015d8565b600060405180830381855af49150503d806000811462000d15576040519150601f19603f3d011682016040523d82523d6000602084013e62000d1a565b606091505b509150915062000d2c85838362000d96565b9250505092915050565b600034111562000d72576040517fb398979f00000000000000000000000000000000000000000000000000000000815260040160405180910390fd5b565b600062000d80620009b0565b60000160089054906101000a900460ff16905090565b60608262000daf5762000da98262000e2e565b62000e26565b6000825114801562000dd8575060008473ffffffffffffffffffffffffffffffffffffffff163b145b1562000e1d57836040517f9996b31500000000000000000000000000000000000000000000000000000000815260040162000e1491906200110c565b60405180910390fd5b81905062000e27565b5b9392505050565b60008151111562000e425780518082602001fd5b6040517f1425ea4200000000000000000000000000000000000000000000000000000000815260040160405180910390fd5b612d9880620015f283390190565b6000604051905090565b600080fd5b600080fd5b600073ffffffffffffffffffffffffffffffffffffffff82169050919050565b600062000ec38262000e96565b9050919050565b62000ed58162000eb6565b811462000ee157600080fd5b50565b60008135905062000ef58162000eca565b92915050565b600080fd5b600080fd5b6000601f19601f8301169050919050565b7f4e487b7100000000000000000000000000000000000000000000000000000000600052604160045260246000fd5b62000f508262000f05565b810181811067ffffffffffffffff8211171562000f725762000f7162000f16565b5b80604052505050565b600062000f8762000e82565b905062000f95828262000f45565b919050565b600067ffffffffffffffff82111562000fb85762000fb762000f16565b5b62000fc38262000f05565b9050602081019050919050565b82818337600083830152505050565b600062000ff662000ff08462000f9a565b62000f7b565b90508281526020810184848401111562001015576200101462000f00565b5b6200102284828562000fd0565b509392505050565b600082601f83011262001042576200104162000efb565b5b81356200105484826020860162000fdf565b91505092915050565b6000806040838503121562001077576200107662000e8c565b5b6000620010878582860162000ee4565b925050602083013567ffffffffffffffff811115620010ab57620010aa62000e91565b5b620010b9858286016200102a565b9150509250929050565b6000819050919050565b620010d881620010c3565b82525050565b6000602082019050620010f56000830184620010cd565b92915050565b620011068162000eb6565b82525050565b6000602082019050620011236000830184620010fb565b92915050565b600081519050919050565b600082825260208201905092915050565b60005b838110156200116557808201518184015260208101905062001148565b60008484015250505050565b60006200117e8262001129565b6200118a818562001134565b93506200119c81856020860162001145565b620011a78162000f05565b840191505092915050565b60006020820190508181036000830152620011ce818462001171565b905092915050565b600067ffffffffffffffff821115620011f457620011f362000f16565b5b620011ff8262000f05565b9050602081019050919050565b6000620012236200121d84620011d6565b62000f7b565b90508281526020810184848401111562001242576200124162000f00565b5b6200124f84828562000fd0565b509392505050565b600082601f8301126200126f576200126e62000efb565b5b8135620012818482602086016200120c565b91505092915050565b600080600080600060a08688031215620012a957620012a862000e8c565b5b600086013567ffffffffffffffff811115620012ca57620012c962000e91565b5b620012d88882890162001257565b955050602086013567ffffffffffffffff811115620012fc57620012fb62000e91565b5b6200130a8882890162001257565b945050604086013567ffffffffffffffff8111156200132e576200132d62000e91565b5b6200133c8882890162001257565b935050606086013567ffffffffffffffff81111562001360576200135f62000e91565b5b6200136e8882890162001257565b925050608086013567ffffffffffffffff81111562001392576200139162000e91565b5b620013a08882890162001257565b9150509295509295909350565b600060208284031215620013c657620013c562000e8c565b5b6000620013d68482850162000ee4565b91505092915050565b6000819050919050565b600067ffffffffffffffff82169050919050565b6000819050919050565b600062001428620014226200141c84620013df565b620013fd565b620013e9565b9050919050565b6200143a8162001407565b82525050565b60006020820190506200145760008301846200142f565b92915050565b6000606082019050818103600083015262001479818662001171565b905081810360208301526200148f818562001171565b90508181036040830152620014a5818462001171565b9050949350505050565b600060a082019050620014c66000830188620010fb565b8181036020830152620014da818762001171565b90508181036040830152620014f0818662001171565b9050818103606083015262001506818562001171565b905081810360808301526200151c818462001171565b90509695505050505050565b6200153381620010c3565b81146200153f57600080fd5b50565b600081519050620015538162001528565b92915050565b60006020828403121562001572576200157162000e8c565b5b6000620015828482850162001542565b91505092915050565b600081519050919050565b600081905092915050565b6000620015ae826200158b565b620015ba818562001596565b9350620015cc81856020860162001145565b80840191505092915050565b6000620015e68284620015a1565b91508190509291505056fe60806040523480156200001157600080fd5b5060405162002d9838038062002d98833981810160405281019062000037919062000376565b33838381600090816200004b91906200067a565b5080600190816200005d91906200067a565b5050506000600660006101000a81548160ff021916908315150217905550600073ffffffffffffffffffffffffffffffffffffffff168173ffffffffffffffffffffffffffffffffffffffff1603620000f05760006040517f1e4fbdf7000000000000000000000000000000000000000000000000000000008152600401620000e79190620007a6565b60405180910390fd5b62000101816200011d60201b60201c565b5080600790816200011391906200067a565b50505050620007c3565b6000600660019054906101000a900473ffffffffffffffffffffffffffffffffffffffff16905081600660016101000a81548173ffffffffffffffffffffffffffffffffffffffff021916908373ffffffffffffffffffffffffffffffffffffffff1602179055508173ffffffffffffffffffffffffffffffffffffffff168173ffffffffffffffffffffffffffffffffffffffff167f8be0079c531659141344cd1fd0a4f28419497f9722a3daafe3b4186f6b6457e060405160405180910390a35050565b6000604051905090565b600080fd5b600080fd5b600080fd5b600080fd5b6000601f19601f8301169050919050565b7f4e487b7100000000000000000000000000000000000000000000000000000000600052604160045260246000fd5b6200024c8262000201565b810181811067ffffffffffffffff821117156200026e576200026d62000212565b5b80604052505050565b600062000283620001e3565b905062000291828262000241565b919050565b600067ffffffffffffffff821115620002b457620002b362000212565b5b620002bf8262000201565b9050602081019050919050565b60005b83811015620002ec578082015181840152602081019050620002cf565b60008484015250505050565b60006200030f620003098462000296565b62000277565b9050828152602081018484840111156200032e576200032d620001fc565b5b6200033b848285620002cc565b509392505050565b600082601f8301126200035b576200035a620001f7565b5b81516200036d848260208601620002f8565b91505092915050565b600080600060608486031215620003925762000391620001ed565b5b600084015167ffffffffffffffff811115620003b357620003b2620001f2565b5b620003c18682870162000343565b935050602084015167ffffffffffffffff811115620003e557620003e4620001f2565b5b620003f38682870162000343565b925050604084015167ffffffffffffffff811115620004175762000416620001f2565b5b620004258682870162000343565b9150509250925092565b600081519050919050565b7f4e487b7100000000000000000000000000000000000000000000000000000000600052602260045260246000fd5b600060028204905060018216806200048257607f821691505b6020821081036200049857620004976200043a565b5b50919050565b60008190508160005260206000209050919050565b60006020601f8301049050919050565b600082821b905092915050565b600060088302620005027fffffffffffffffffffffffffffffffffffffffffffffffffffffffffffffffff82620004c3565b6200050e8683620004c3565b95508019841693508086168417925050509392505050565b6000819050919050565b6000819050919050565b60006200055b620005556200054f8462000526565b62000530565b62000526565b9050919050565b6000819050919050565b62000577836200053a565b6200058f620005868262000562565b848454620004d0565b825550505050565b600090565b620005a662000597565b620005b38184846200056c565b505050565b5b81811015620005db57620005cf6000826200059c565b600181019050620005b9565b5050565b601f8211156200062a57620005f4816200049e565b620005ff84620004b3565b810160208510156200060f578190505b620006276200061e85620004b3565b830182620005b8565b50505b505050565b600082821c905092915050565b60006200064f600019846008026200062f565b1980831691505092915050565b60006200066a83836200063c565b9150826002028217905092915050565b62000685826200042f565b67ffffffffffffffff811115620006a157620006a062000212565b5b620006ad825462000469565b620006ba828285620005df565b600060209050601f831160018114620006f25760008415620006dd578287015190505b620006e985826200065c565b86555062000759565b601f19841662000702866200049e565b60005b828110156200072c5784890151825560018201915060208501945060208101905062000705565b868310156200074c578489015162000748601f8916826200063c565b8355505b6001600288020188555050505b505050505050565b600073ffffffffffffffffffffffffffffffffffffffff82169050919050565b60006200078e8262000761565b9050919050565b620007a08162000781565b82525050565b6000602082019050620007bd600083018462000795565b92915050565b6125c580620007d36000396000f3fe608060405234801561001057600080fd5b50600436106101375760003560e01c80636871ee40116100b857806395d89b411161007c57806395d89b41146102ee578063a22cb4651461030c578063b88d4fde14610328578063c87b56dd14610344578063e985e9c514610374578063f2fde38b146103a457610137565b80636871ee401461028257806370a082311461028c578063715018a6146102bc5780638456cb59146102c65780638da5cb5b146102d057610137565b80633f4ba83a116100ff5780633f4ba83a146101f257806342842e0e146101fc57806342966c68146102185780635c975abb146102345780636352211e1461025257610137565b806301ffc9a71461013c57806306fdde031461016c578063081812fc1461018a578063095ea7b3146101ba57806323b872dd146101d6575b600080fd5b61015660048036038101906101519190611cc0565b6103c0565b6040516101639190611d08565b60405180910390f35b6101746104a2565b6040516101819190611db3565b60405180910390f35b6101a4600480360381019061019f9190611e0b565b610534565b6040516101b19190611e79565b60405180910390f35b6101d460048036038101906101cf9190611ec0565b610550565b005b6101f060048036038101906101eb9190611f00565b610566565b005b6101fa610668565b005b61021660048036038101906102119190611f00565b61067a565b005b610232600480360381019061022d9190611e0b565b61069a565b005b61023c6106b1565b6040516102499190611d08565b60405180910390f35b61026c60048036038101906102679190611e0b565b6106c8565b6040516102799190611e79565b60405180910390f35b61028a6106da565b005b6102a660048036038101906102a19190611f53565b610791565b6040516102b39190611f8f565b60405180910390f35b6102c461084b565b005b6102ce61085f565b005b6102d8610871565b6040516102e59190611e79565b60405180910390f35b6102f661089b565b6040516103039190611db3565b60405180910390f35b61032660048036038101906103219190611fd6565b61092d565b005b610342600480360381019061033d919061214b565b610943565b005b61035e60048036038101906103599190611e0b565b610960565b60405161036b9190611db3565b60405180910390f35b61038e600480360381019061038991906121ce565b6109c9565b60405161039b9190611d08565b60405180910390f35b6103be60048036038101906103b99190611f53565b610a5d565b005b60007f80ac58cd000000000000000000000000000000000000000000000000000000007bffffffffffffffffffffffffffffffffffffffffffffffffffffffff1916827bffffffffffffffffffffffffffffffffffffffffffffffffffffffff1916148061048b57507f5b5e139f000000000000000000000000000000000000000000000000000000007bffffffffffffffffffffffffffffffffffffffffffffffffffffffff1916827bffffffffffffffffffffffffffffffffffffffffffffffffffffffff1916145b8061049b575061049a82610ae3565b5b9050919050565b6060600080546104b19061223d565b80601f01602080910402602001604051908101604052809291908181526020018280546104dd9061223d565b801561052a5780601f106104ff5761010080835404028352916020019161052a565b820191906000526020600020905b81548152906001019060200180831161050d57829003601f168201915b5050505050905090565b600061053f82610b4d565b5061054982610bd5565b9050919050565b610562828261055d610c12565b610c1a565b5050565b600073ffffffffffffffffffffffffffffffffffffffff168273ffffffffffffffffffffffffffffffffffffffff16036105d85760006040517f64a0ae920000000000000000000000000000000000000000000000000000000081526004016105cf9190611e79565b60405180910390fd5b60006105ec83836105e7610c12565b610c2c565b90508373ffffffffffffffffffffffffffffffffffffffff168173ffffffffffffffffffffffffffffffffffffffff1614610662578382826040517f64283d7b0000000000000000000000000000000000000000000000000000000081526004016106599392919061226e565b60405180910390fd5b50505050565b610670610cf5565b610678610d7c565b565b61069583838360405180602001604052806000815250610943565b505050565b6106ad6000826106a8610c12565b610c2c565b5050565b6000600660009054906101000a900460ff16905090565b60006106d382610b4d565b9050919050565b60006106e533610791565b14610725576040517f08c379a000000000000000000000000000000000000000000000000000000000815260040161071c906122f1565b60405180910390fd5b60006008600081548092919061073a90612340565b91905055905061074a3382610ddf565b803373ffffffffffffffffffffffffffffffffffffffff167fb9144c96c86541f6fa89c9f2f02495cccf4b08cd6643e26d34ee00aa586558a860405160405180910390a350565b60008073ffffffffffffffffffffffffffffffffffffffff168273ffffffffffffffffffffffffffffffffffffffff16036108045760006040517f89c62b640000000000000000000000000000000000000000000000000000000081526004016107fb9190611e79565b60405180910390fd5b600360008373ffffffffffffffffffffffffffffffffffffffff1673ffffffffffffffffffffffffffffffffffffffff168152602001908152602001600020549050919050565b610853610cf5565b61085d6000610dfd565b565b610867610cf5565b61086f610ec3565b565b6000600660019054906101000a900473ffffffffffffffffffffffffffffffffffffffff16905090565b6060600180546108aa9061223d565b80601f01602080910402602001604051908101604052809291908181526020018280546108d69061223d565b80156109235780601f106108f857610100808354040283529160200191610923565b820191906000526020600020905b81548152906001019060200180831161090657829003601f168201915b5050505050905090565b61093f610938610c12565b8383610f26565b5050565b61094e848484610566565b61095a84848484611095565b50505050565b606061096b82610b4d565b50600061097661124c565b9050600081511161099657604051806020016040528060008152506109c1565b806109a0846112de565b6040516020016109b19291906123c4565b6040516020818303038152906040525b915050919050565b6000600560008473ffffffffffffffffffffffffffffffffffffffff1673ffffffffffffffffffffffffffffffffffffffff16815260200190815260200160002060008373ffffffffffffffffffffffffffffffffffffffff1673ffffffffffffffffffffffffffffffffffffffff16815260200190815260200160002060009054906101000a900460ff16905092915050565b610a65610cf5565b600073ffffffffffffffffffffffffffffffffffffffff168173ffffffffffffffffffffffffffffffffffffffff1603610ad75760006040517f1e4fbdf7000000000000000000000000000000000000000000000000000000008152600401610ace9190611e79565b60405180910390fd5b610ae081610dfd565b50565b60007f01ffc9a7000000000000000000000000000000000000000000000000000000007bffffffffffffffffffffffffffffffffffffffffffffffffffffffff1916827bffffffffffffffffffffffffffffffffffffffffffffffffffffffff1916149050919050565b600080610b59836113ac565b9050600073ffffffffffffffffffffffffffffffffffffffff168173ffffffffffffffffffffffffffffffffffffffff1603610bcc57826040517f7e273289000000000000000000000000000000000000000000000000000000008152600401610bc39190611f8f565b60405180910390fd5b80915050919050565b60006004600083815260200190815260200160002060009054906101000a900473ffffffffffffffffffffffffffffffffffffffff169050919050565b600033905090565b610c2783838360016113e9565b505050565b600080610c38846113ac565b9050600073ffffffffffffffffffffffffffffffffffffffff168173ffffffffffffffffffffffffffffffffffffffff161480610ca15750600073ffffffffffffffffffffffffffffffffffffffff168573ffffffffffffffffffffffffffffffffffffffff16145b610ce0576040517f08c379a0000000000000000000000000000000000000000000000000000000008152600401610cd790612434565b60405180910390fd5b610ceb8585856115ae565b9150509392505050565b610cfd610c12565b73ffffffffffffffffffffffffffffffffffffffff16610d1b610871565b73ffffffffffffffffffffffffffffffffffffffff1614610d7a57610d3e610c12565b6040517f118cdaa7000000000000000000000000000000000000000000000000000000008152600401610d719190611e79565b60405180910390fd5b565b610d846115cc565b6000600660006101000a81548160ff0219169083151502179055507f5db9ee0a495bf2e6ff9c91a7834c1ba4fdd244a5e8aa4e537bd38aeae4b073aa610dc8610c12565b604051610dd59190611e79565b60405180910390a1565b610df982826040518060200160405280600081525061160c565b5050565b6000600660019054906101000a900473ffffffffffffffffffffffffffffffffffffffff16905081600660016101000a81548173ffffffffffffffffffffffffffffffffffffffff021916908373ffffffffffffffffffffffffffffffffffffffff1602179055508173ffffffffffffffffffffffffffffffffffffffff168173ffffffffffffffffffffffffffffffffffffffff167f8be0079c531659141344cd1fd0a4f28419497f9722a3daafe3b4186f6b6457e060405160405180910390a35050565b610ecb611628565b6001600660006101000a81548160ff0219169083151502179055507f62e78cea01bee320cd4e420270b5ea74000d11b0c9f74754ebdbfc544b05a258610f0f610c12565b604051610f1c9190611e79565b60405180910390a1565b600073ffffffffffffffffffffffffffffffffffffffff168273ffffffffffffffffffffffffffffffffffffffff1603610f9757816040517f5b08ba18000000000000000000000000000000000000000000000000000000008152600401610f8e9190611e79565b60405180910390fd5b80600560008573ffffffffffffffffffffffffffffffffffffffff1673ffffffffffffffffffffffffffffffffffffffff16815260200190815260200160002060008473ffffffffffffffffffffffffffffffffffffffff1673ffffffffffffffffffffffffffffffffffffffff16815260200190815260200160002060006101000a81548160ff0219169083151502179055508173ffffffffffffffffffffffffffffffffffffffff168373ffffffffffffffffffffffffffffffffffffffff167f17307eab39ab6107e8899845ad3d59bd9653f200f220920489ca2b5937696c31836040516110889190611d08565b60405180910390a3505050565b60008373ffffffffffffffffffffffffffffffffffffffff163b1115611246578273ffffffffffffffffffffffffffffffffffffffff1663150b7a026110d9610c12565b8685856040518563ffffffff1660e01b81526004016110fb94939291906124a9565b6020604051808303816000875af192505050801561113757506040513d601f19601f82011682018060405250810190611134919061250a565b60015b6111bb573d8060008114611167576040519150601f19603f3d011682016040523d82523d6000602084013e61116c565b606091505b5060008151036111b357836040517f64a0ae920000000000000000000000000000000000000000000000000000000081526004016111aa9190611e79565b60405180910390fd5b805181602001fd5b63150b7a0260e01b7bffffffffffffffffffffffffffffffffffffffffffffffffffffffff1916817bffffffffffffffffffffffffffffffffffffffffffffffffffffffff19161461124457836040517f64a0ae9200000000000000000000000000000000000000000000000000000000815260040161123b9190611e79565b60405180910390fd5b505b50505050565b60606007805461125b9061223d565b80601f01602080910402602001604051908101604052809291908181526020018280546112879061223d565b80156112d45780601f106112a9576101008083540402835291602001916112d4565b820191906000526020600020905b8154815290600101906020018083116112b757829003601f168201915b5050505050905090565b6060600060016112ed84611669565b01905060008167ffffffffffffffff81111561130c5761130b612020565b5b6040519080825280601f01601f19166020018201604052801561133e5781602001600182028036833780820191505090505b509050600082602001820190505b6001156113a1578080600190039150507f3031323334353637383961626364656600000000000000000000000000000000600a86061a8153600a858161139557611394612537565b5b0494506000850361134c575b819350505050919050565b60006002600083815260200190815260200160002060009054906101000a900473ffffffffffffffffffffffffffffffffffffffff169050919050565b80806114225750600073ffffffffffffffffffffffffffffffffffffffff168273ffffffffffffffffffffffffffffffffffffffff1614155b1561155657600061143284610b4d565b9050600073ffffffffffffffffffffffffffffffffffffffff168373ffffffffffffffffffffffffffffffffffffffff161415801561149d57508273ffffffffffffffffffffffffffffffffffffffff168173ffffffffffffffffffffffffffffffffffffffff1614155b80156114b057506114ae81846109c9565b155b156114f257826040517fa9fbf51f0000000000000000000000000000000000000000000000000000000081526004016114e99190611e79565b60405180910390fd5b811561155457838573ffffffffffffffffffffffffffffffffffffffff168273ffffffffffffffffffffffffffffffffffffffff167f8c5be1e5ebec7d5bd14f71427d1e84f3dd0314c0f7b2291e5b200ac8c7c3b92560405160405180910390a45b505b836004600085815260200190815260200160002060006101000a81548173ffffffffffffffffffffffffffffffffffffffff021916908373ffffffffffffffffffffffffffffffffffffffff16021790555050505050565b60006115b8611628565b6115c38484846117bc565b90509392505050565b6115d46106b1565b61160a576040517f8dfc202b00000000000000000000000000000000000000000000000000000000815260040160405180910390fd5b565b61161683836119d6565b6116236000848484611095565b505050565b6116306106b1565b15611667576040517fd93c066500000000000000000000000000000000000000000000000000000000815260040160405180910390fd5b565b600080600090507a184f03e93ff9f4daa797ed6e38ed64bf6a1f01000000000000000083106116c7577a184f03e93ff9f4daa797ed6e38ed64bf6a1f01000000000000000083816116bd576116bc612537565b5b0492506040810190505b6d04ee2d6d415b85acef81000000008310611704576d04ee2d6d415b85acef810000000083816116fa576116f9612537565b5b0492506020810190505b662386f26fc10000831061173357662386f26fc10000838161172957611728612537565b5b0492506010810190505b6305f5e100831061175c576305f5e100838161175257611751612537565b5b0492506008810190505b612710831061178157612710838161177757611776612537565b5b0492506004810190505b606483106117a4576064838161179a57611799612537565b5b0492506002810190505b600a83106117b3576001810190505b80915050919050565b6000806117c8846113ac565b9050600073ffffffffffffffffffffffffffffffffffffffff168373ffffffffffffffffffffffffffffffffffffffff161461180a57611809818486611acf565b5b600073ffffffffffffffffffffffffffffffffffffffff168173ffffffffffffffffffffffffffffffffffffffff161461189b5761184c6000856000806113e9565b6001600360008373ffffffffffffffffffffffffffffffffffffffff1673ffffffffffffffffffffffffffffffffffffffff168152602001908152602001600020600082825403925050819055505b600073ffffffffffffffffffffffffffffffffffffffff168573ffffffffffffffffffffffffffffffffffffffff161461191e576001600360008773ffffffffffffffffffffffffffffffffffffffff1673ffffffffffffffffffffffffffffffffffffffff168152602001908152602001600020600082825401925050819055505b846002600086815260200190815260200160002060006101000a81548173ffffffffffffffffffffffffffffffffffffffff021916908373ffffffffffffffffffffffffffffffffffffffff160217905550838573ffffffffffffffffffffffffffffffffffffffff168273ffffffffffffffffffffffffffffffffffffffff167fddf252ad1be2c89b69c2b068fc378daa952ba7f163c4a11628f55a4df523b3ef60405160405180910390a4809150509392505050565b600073ffffffffffffffffffffffffffffffffffffffff168273ffffffffffffffffffffffffffffffffffffffff1603611a485760006040517f64a0ae92000000000000000000000000000000000000000000000000000000008152600401611a3f9190611e79565b60405180910390fd5b6000611a5683836000610c2c565b9050600073ffffffffffffffffffffffffffffffffffffffff168173ffffffffffffffffffffffffffffffffffffffff1614611aca5760006040517f73c6ac6e000000000000000000000000000000000000000000000000000000008152600401611ac19190611e79565b60405180910390fd5b505050565b611ada838383611b93565b611b8e57600073ffffffffffffffffffffffffffffffffffffffff168373ffffffffffffffffffffffffffffffffffffffff1603611b4f57806040517f7e273289000000000000000000000000000000000000000000000000000000008152600401611b469190611f8f565b60405180910390fd5b81816040517f177e802f000000000000000000000000000000000000000000000000000000008152600401611b85929190612566565b60405180910390fd5b505050565b60008073ffffffffffffffffffffffffffffffffffffffff168373ffffffffffffffffffffffffffffffffffffffff1614158015611c4b57508273ffffffffffffffffffffffffffffffffffffffff168473ffffffffffffffffffffffffffffffffffffffff161480611c0c5750611c0b84846109c9565b5b80611c4a57508273ffffffffffffffffffffffffffffffffffffffff16611c3283610bd5565b73ffffffffffffffffffffffffffffffffffffffff16145b5b90509392505050565b6000604051905090565b600080fd5b600080fd5b60007fffffffff0000000000000000000000000000000000000000000000000000000082169050919050565b611c9d81611c68565b8114611ca857600080fd5b50565b600081359050611cba81611c94565b92915050565b600060208284031215611cd657611cd5611c5e565b5b6000611ce484828501611cab565b91505092915050565b60008115159050919050565b611d0281611ced565b82525050565b6000602082019050611d1d6000830184611cf9565b92915050565b600081519050919050565b600082825260208201905092915050565b60005b83811015611d5d578082015181840152602081019050611d42565b60008484015250505050565b6000601f19601f8301169050919050565b6000611d8582611d23565b611d8f8185611d2e565b9350611d9f818560208601611d3f565b611da881611d69565b840191505092915050565b60006020820190508181036000830152611dcd8184611d7a565b905092915050565b6000819050919050565b611de881611dd5565b8114611df357600080fd5b50565b600081359050611e0581611ddf565b92915050565b600060208284031215611e2157611e20611c5e565b5b6000611e2f84828501611df6565b91505092915050565b600073ffffffffffffffffffffffffffffffffffffffff82169050919050565b6000611e6382611e38565b9050919050565b611e7381611e58565b82525050565b6000602082019050611e8e6000830184611e6a565b92915050565b611e9d81611e58565b8114611ea857600080fd5b50565b600081359050611eba81611e94565b92915050565b60008060408385031215611ed757611ed6611c5e565b5b6000611ee585828601611eab565b9250506020611ef685828601611df6565b9150509250929050565b600080600060608486031215611f1957611f18611c5e565b5b6000611f2786828701611eab565b9350506020611f3886828701611eab565b9250506040611f4986828701611df6565b9150509250925092565b600060208284031215611f6957611f68611c5e565b5b6000611f7784828501611eab565b91505092915050565b611f8981611dd5565b82525050565b6000602082019050611fa46000830184611f80565b92915050565b611fb381611ced565b8114611fbe57600080fd5b50565b600081359050611fd081611faa565b92915050565b60008060408385031215611fed57611fec611c5e565b5b6000611ffb85828601611eab565b925050602061200c85828601611fc1565b9150509250929050565b600080fd5b600080fd5b7f4e487b7100000000000000000000000000000000000000000000000000000000600052604160045260246000fd5b61205882611d69565b810181811067ffffffffffffffff8211171561207757612076612020565b5b80604052505050565b600061208a611c54565b9050612096828261204f565b919050565b600067ffffffffffffffff8211156120b6576120b5612020565b5b6120bf82611d69565b9050602081019050919050565b82818337600083830152505050565b60006120ee6120e98461209b565b612080565b90508281526020810184848401111561210a5761210961201b565b5b6121158482856120cc565b509392505050565b600082601f83011261213257612131612016565b5b81356121428482602086016120db565b91505092915050565b6000806000806080858703121561216557612164611c5e565b5b600061217387828801611eab565b945050602061218487828801611eab565b935050604061219587828801611df6565b925050606085013567ffffffffffffffff8111156121b6576121b5611c63565b5b6121c28782880161211d565b91505092959194509250565b600080604083850312156121e5576121e4611c5e565b5b60006121f385828601611eab565b925050602061220485828601611eab565b9150509250929050565b7f4e487b7100000000000000000000000000000000000000000000000000000000600052602260045260246000fd5b6000600282049050600182168061225557607f821691505b6020821081036122685761226761220e565b5b50919050565b60006060820190506122836000830186611e6a565b6122906020830185611f80565b61229d6040830184611e6a565b949350505050565b7f596f752063616e206d696e74206f6e6c79206f6e6520746f6b656e0000000000600082015250565b60006122db601b83611d2e565b91506122e6826122a5565b602082019050919050565b6000602082019050818103600083015261230a816122ce565b9050919050565b7f4e487b7100000000000000000000000000000000000000000000000000000000600052601160045260246000fd5b600061234b82611dd5565b91507fffffffffffffffffffffffffffffffffffffffffffffffffffffffffffffffff820361237d5761237c612311565b5b600182019050919050565b600081905092915050565b600061239e82611d23565b6123a88185612388565b93506123b8818560208601611d3f565b80840191505092915050565b60006123d08285612393565b91506123dc8284612393565b91508190509392505050565b7f546f6b656e207472616e73666572206973206e6f7420616c6c6f776564000000600082015250565b600061241e601d83611d2e565b9150612429826123e8565b602082019050919050565b6000602082019050818103600083015261244d81612411565b9050919050565b600081519050919050565b600082825260208201905092915050565b600061247b82612454565b612485818561245f565b9350612495818560208601611d3f565b61249e81611d69565b840191505092915050565b60006080820190506124be6000830187611e6a565b6124cb6020830186611e6a565b6124d86040830185611f80565b81810360608301526124ea8184612470565b905095945050505050565b60008151905061250481611c94565b92915050565b6000602082840312156125205761251f611c5e565b5b600061252e848285016124f5565b91505092915050565b7f4e487b7100000000000000000000000000000000000000000000000000000000600052601260045260246000fd5b600060408201905061257b6000830185611e6a565b6125886020830184611f80565b939250505056fea2646970667358221220c5eca685bc86bee4f1e47797973b7e9a9c3b501589ebc7e1dbd2003a6d59eb0264736f6c63430008140033a2646970667358221220b3228404cd2426d522764d66e04d88ba6c7946ed1eea771d181472829092f49e64736f6c63430008140033",
  "linkReferences": {},
  "deployedLinkReferences": {}
}